:020000040800F2
:1000000028080020450100080D320008F52C0008E2
:10001000093200087D07000875370008000000005D
:100020000000000000000000000000006132000835
:100030008D070008000000005D32000865320008EE
:100040005F0100085F0100085F0100085F01000810
:100050005F0100085F0100085F0100085F01000800
:100060005F0100085F0100085F0100085F010008F0
:100070005F010008810700085F0100085F010008B8
:100080005F0100085F0100085F0100085F010008D0
:100090005F0100085F0100085F0100085F010008C0
:1000A0005F0100085F0100085F0100085F010008B0
:1000B0005F0100085F0100085F0100085F010008A0
:1000C0005F0100085F0100085F0100085F01000890
:1000D0005F0100085F0100085F0100086937000840
:1000E0005F0100085F0100085F0100085F01000870
:1000F0005F0100085F0100085F0100085F01000860
:100100005F0100085F0100085F0100085F0100084F
:100110005F0100085F0100086D32000879320008B5
:100120005F0100085F0100085F0100085F0100082F
:10013000DFF80CD000F000FB0048004779370008DA
:10014000280800200648804706480047FEE7FEE7EB
:10015000FEE7FEE7FEE7FEE7FEE7FEE7FEE7FEE777
:100160006932000831010008F0B480EA0102D40FBE
:100170004200B2EB410F02D20246084611464A0045
:1001800042D0C30DDDB2C1F3C752AD1A202D35DA0E
:10019000C1F3160141F4000204B15242C5F1200638
:1001A00002FA06F12A411044B3EBD05F23D0C4B168
:1001B000012DA0EBC35009DCF0BC4FF0004202EA75
:1001C000C352DBB200F5000000F02ABA400000F193
:1001D000807000EBC350A0F1807040EAD1704900FC
:1001E00009E0490841EAC071A0EBC35000F50000E6
:1001F000400800EBC350F0BC00F009BA6142012294
:1002000002EB4101001BF6E7F0BC704781F00041B2
:10021000AAE780F00040A7E780EA010210B502F0EB
:100220000043400022D04A001FD0010E01EB1261B2
:10023000C0F35600C2F3560240F4000042F400023C
:10024000A0FB022000047F39140400D0401C50EAB7
:10025000124001D44000491EC2B20C0604EBD0107B
:10026000401C4008802A02D003E0002010BD20F08E
:100270000100002900DA0020184310BD30B480EAE4
:10028000010202F0004530F0004221F0004013D09E
:1002900090B1C30DD40DC2F31601C0F31600E41AD9
:1002A00041F4000140F400027D34914201D3641C0A
:1002B00000E04900002C02DA30BC002070474FF407
:1002C00000000023914201D3891A034340084FEAFA
:1002D0004101F7D151B1914202D14FF0004105E007
:1002E00002D24FF0010101E06FF0010103EBC450B5
:1002F000284430BC00F08BB92DE9FE4F81EA03049D
:1003000004F0004421F0004100944FF0000B23F072
:10031000004350EA01045ED052EA03045BD0C3F309
:100320000A54C1F30A552C44A4F2F3340194A0FBFF
:100330000254C1F3130141F48011C3F3130343F4D6
:10034000801301FB024400FB034E840A970A44EA2F
:10035000815447EA8357A4FB076802958D0A05FB81
:1003600007854FEA932C04FB0C542705029D4FEAA6
:10037000065847EA1637B5EB08056EEB070C870EF3
:10038000920E47EA811742EA8312A7FB0201B6EBFD
:100390000B0164EB00042B0D43EA0C335E1844EBB5
:1003A0001C50DA465146E7FB0201C5F313044FEA3D
:1003B0000B3343EA14534FEA0432019C43EA060329
:1003C000A4F10C040294009CCDE900B400F065F99E
:1003D00003B0BDE8F08F00200146F9E72DE9F04DAC
:1003E00081EA030404F0004B21F0004514464FF06D
:1003F000000A23F0004150EA050220D054EA01022D
:100400001DD0C5F30A570246C5F31303C1F3130009
:10041000C1F30A5640F4801543F48013A7EB060895
:10042000101BD64608F2FD3873EB050002D308F125
:10043000010801E092185B41B8F1000F03DA0020D7
:100440000146BDE8F08D00204FF480110646844639
:100450000EE0171B73EB050705D3121B63EB0503B7
:1004600006434CEA010C49084FEA300092185B4100
:1004700050EA0107EDD152EA030012D082EA0400EB
:1004800083EA0501084305D0101BAB4106D20122C7
:10049000002306E000224FF0004302E06FF001026B
:1004A00053101AEB06004CEB085110EB0A0041EB1D
:1004B0000B01BDE8F04D00F0E1B8002801DBC0F110
:1004C0000040002901DBC1F10041814201D8012037
:1004D000704700207047002801DBC0F10040002970
:1004E00001DBC1F10041814201D2012070470020AF
:1004F0007047002801DBC0F10040002901DBC1F199
:100500000041814201D3012070470020704700283C
:1005100001DBC0F10040002901DBC1F10041814253
:1005200001D90120704700207047002801DBC0F18D
:100530000040002901DBC1F10041814201D10120CD
:10054000704700207047C10F80EAE0700844CA0776
:100550009623002100F064B896230022114600F093
:100560005FB820F00040C10DC0F3160040F4000059
:100570007F2901DA00207047962903DCC1F196013A
:10058000C840704796398840704770B5C1F30A5229
:1005900001F000450024C1F3130140F2FF3341F4A0
:1005A00080119A4201DA002070BD40F233439A4232
:1005B000A2F2334203DC524200F019F800E090400E
:1005C0002C43F1D0404270BD00F0004230F00040BA
:1005D0000AD0C10D01F56071C0F3160042EA015165
:1005E000C208400711437047002001467047202A87
:1005F00004DB203A21FA02F00021704721FA02F3CD
:10060000D040C2F1200291400843194670470029AA
:10061000A8BF7047401C490008BF20F00100704788
:1006200010B4B0FA80FC00FA0CF050EA010404BFE8
:1006300010BC704749B1CCF1200421FA04F411FA3E
:100640000CF118BF012121430843A3EB0C01CB1D82
:100650004FEA00614FEA102042BF002010BC7047F3
:1006600000EBC35010440029A4BF10BC7047401CCD
:10067000490008BF20F0010010BC704710B5141EDF
:1006800073F1000408DA401C41F1000192185B414B
:100690001A4301D120F0010010BD2DE9F04D924622
:1006A0009B4611B1B1FA81F202E0B0FA80F2203239
:1006B000904600F053F804460F4640EA0A0041EA2B
:1006C0000B0153465A46084313D0114653EA010022
:1006D00019D0C8F140025046FFF789FF05460E4683
:1006E00050465946424600F039F8084305D00120EB
:1006F00004E020463946BDE8F08D0020054346EA77
:10070000E0762C4337430A986305E40AA0EB08001F
:100710000022FD0A44EA47540A3002D5002001466F
:10072000E9E7010510196941DDE90845001969414A
:10073000BDE8F04DA2E70000064C074D06E0E0687A
:1007400040F0010394E8070098471034AC42F6D318
:10075000FFF7F2FCE83B0008083C0008202A04DB15
:10076000203A00FA02F1002070479140C2F12003C4
:1007700020FA03F31943904070470000FEE70000A1
:1007800040F29C00C2F2000000F028B9704700005F
:1007900070B540F2E004C2F2000420463C2101F0B2
:1007A0008BF9206840F22815C168C2F2000541F0BB
:1007B0000101C16028463C2101F07EF92868C1682A
:1007C00041F00101C16040F24820C2F2000001F096
:1007D00059F840F29020C2F2000001F053F840F2C4
:1007E0007016C2F200063046002101F083FC30464C
:1007F000042101F07FFC3046082101F07BFC3046EB
:100800000C2101F077FC40F2B816C2F20006304627
:10081000002101F06FFC3046042101F06BFC3046F2
:10082000082101F067FC30460C2101F063FC40F226
:100830000026C2F200063046002101F05BFC304683
:10084000042101F057FC3046082101F053FC3046EA
:100850000C2101F04FFC206847F2305141622A68B8
:1008600064205162BDE8704000F094BAEFF310804C
:1008700072B600BFFEE70000014690F82100022892
:1008800013D10868D1E90FC3026822F00E0202609A
:10089000026822F001020260012000FA03F2CCF8A3
:1008A000042081F82100002002E004208863012058
:1008B000002281F82020704780B590F8211002298D
:1008C00027D1026840F2040C1368C4F2020C23F032
:1008D0000E03136013680CF17C018A4223F00101BE
:1008E00011601AD940F20841C4F202018A4247D08D
:1008F00040F21C41C4F202018A4245D040F230412C
:10090000C4F202018A4243D14FF48073CCF8003420
:1009100057E004218163012080BD4321C4F202011C
:100920008A420EDD6B21C4F202018A421BDC4421A3
:10093000C4F202018A4239D05821C4F202018A422B
:1009400031E00821C4F202018A4232D01C21C4F2F3
:1009500002018A4232D03021C4F202018A4222D1FD
:100960004FF480722BE06C21C4F202018A4222D043
:100970008021C4F202018A4215D14FF080721EE03C
:100980000123CCF800341CE01023CCF8003418E02C
:100990000CF588614FF480338A4208BF4FF48053CE
:1009A000CCF800340DE04FF4803208E04FF4805270
:1009B00005E0012203E04FF4801200E01022CCF8A1
:1009C0000020012180F82110426B002180F82010C6
:1009D0000AB190470021084680BD000010B5D0E95B
:1009E0000FE3D0F800C0DEF80020DCF80010DA4099
:1009F00054072DD511F004042AD0DCF80010890624
:100A000005D4DCF8001021F00401CCF80010042219
:100A1000C4F2020202F17C018C454CD940F208413B
:100A2000C4F202018C4500F0AB8040F21C41C4F2DC
:100A300002018C4500F0A88040F23041C4F202016E
:100A40008C4540F0A5804FF48061C2F80014ECE0C2
:100A5000940745D511F0020442D0DCF80010890655
:100A600008D4DCF8001021F00A01CCF800100121B4
:100A700080F821100422C4F2020202F17C018C45AC
:100A80004BD940F20841C4F202018C4500F0AD8020
:100A900040F21C41C4F202018C4500F0AA8040F2F1
:100AA0003041C4F202018C4540F0A7804FF4007140
:100AB000C2F80014C8E04321C4F202018C4540DDB5
:100AC0006B21C4F202018C454DDC4421C4F20201C9
:100AD0008C4500F09D805821C4F202018C4562E0F3
:100AE000120740F1B78011F0080108BF10BDDCF813
:100AF000001021F00E01CCF80010012101FA03F2E0
:100B0000CEF80420816380F82110016B00220029B7
:100B100080F8202040F08B809CE04321C4F2020149
:100B20008C4543DD6B21C4F202018C4550DC44212D
:100B3000C4F202018C457DD05821C4F202018C45DB
:100B40006EE00821C4F202018C4564D01C21C4F27D
:100B500002018C4567D03021C4F202018C4522D1BC
:100B60004FF4806160E06C21C4F202018C4554D0E6
:100B70008021C4F202018C4515D14FF0806153E011
:100B80000421C2F8001450E04021C2F800144CE0E7
:100B900002F588634FF480219C4508BF4FF48041E3
:100BA000C2F8001441E04FF480213DE00821C4F276
:100BB00002018C4541D01C21C4F202018C4541D078
:100BC0003021C4F202018C452AD14FF400713AE081
:100BD0006C21C4F202018C4531D08021C4F20201A3
:100BE0008C451DD14FF000712DE00221C2F8001498
:100BF0002AE02021C2F8001426E002F588634FF4B1
:100C000000319C4508BF4FF40051C2F800141BE0AE
:100C10004FF4804108E0042106E04FF4800103E036
:100C20004FF400310FE040211160C16A91B1BDE87D
:100C3000104008474FF4005105E0022103E04FF453
:100C4000001100E020211160816A0022002980F853
:100C50002020ECD110BD0000014600284FF001001B
:100C600008BF70472DE9F04740F2000CC4F2020CB7
:100C70000A684FF6F8330CF5816ECBF6FD737245BA
:100C800038BF03F5806303EB020E4CF6CD43CCF680
:100C9000CC43AEFB033E6FF003060CF5806506EA1D
:100CA0009E06D1E901A9D1F80C803CBF0025C4F211
:100CB0000205C1E90F56022681F82160166843F645
:100CC000F075AE4346EA0A06D1E9045746EA09063A
:100CD00046EA0806D1E906432E43374327433B4300
:100CE000136000228A6381F8210081F8202000200F
:100CF000BDE8F04770470000F0B590F820C0BCF1A7
:100D0000010F32D04FF0010E80F820E090F821C0A2
:100D1000BCF1010F26D14FF0020C80F821C04FF03A
:100D2000000CC0F838C0D0E900C4C56AC66BDCF856
:100D30000070102C27F00107CCF80070006C0EFA40
:100D400000F070600846CCF8043004BF10460A4634
:100D5000CCF80800CCF80C20DCF800003DB140F0E5
:100D60000E000CE0002180F820100220F0BD20F0E1
:100D70000400CCF80000DCF8000040F00A00CCF8D9
:100D80000000DCF8000040F00100CCF8000000207A
:100D9000F0BD0000B0B5044600F00EF9054640F283
:100DA0000400C2F200000078611C18BF044400BFB8
:100DB00000F002F9401BA042FAD3B0BD2DE9F04F7C
:100DC00082B0D1F800C0BCF1000F00F0EC80A0F1BF
:100DD000804241F60045A2F58432C4F2010540F29A
:100DE000004E4FEAB2240627A842C4F2010E08BF03
:100DF0000527052C4FF000044FF001084FF00F03BA
:100E00004FF0000A4FF0000B38BF4FEAB2270097AF
:100E10000AE000BFD1F800C00AF1010A3CFA0AF268
:100E200004F1040400F0BF8008FA0AF91CEA090F73
:100E3000F0D04E684FF6FF72C1F21002964211DCFC
:100E4000122E51D8DFE806F0340A42465050505076
:100E5000505050505050505050494D00D1F80CB0A7
:100E600042E000BF4FF6FF72C1F2210296420FDC52
:100E70000022C1F2110296421AD00022C1F21202DF
:100E8000964215D00022C1F22102964210D02BE0EA
:100E90000022C1F2220296420AD00022C1F231029F
:100EA000964205D00022C1F2320296421CD100BF08
:100EB0008A6842B1012A14BFC0F81490C0F810909B
:100EC0004FF0080B10E04FF0040B0DE0CA6802F180
:100ED000080B09E04FF0000B06E0CA6802F1040BB2
:100EE00002E0CA6802F10C0B22460646BAF1080F6E
:100EF00024BF203A0436376803FA02F5AF430BFAF1
:100F000002F23A433260CA79D2067FF583AF41F2EA
:100F10001807C4F202073A684FF6084342F001028C
:100F20003A603A68CFF6FF7302F001020192019A2B
:100F30002AF0030272440F25D75804F00C06B5407E
:100F4000AF43009D05FA06F63743D7504E6840F28E
:100F50000C45F202DEF8082054BF22EA090242EAF8
:100F60000902CEF80820C4F201052A68B70254BF6E
:100F700022EA090242EA09022A60DEF80420B703E5
:100F800054BF22EA090242EA0902CEF804200F23E4
:100F9000DEF80020F70354BF22EA090242EA090200
:100FA000CEF8002036E702B0BDE8F08F002A08BF77
:100FB000090401617047000040F22040C2F20000C5
:100FC0000068704740F2040040F22041C2F2000085
:100FD000C2F2000100780A681044086070470000FF
:100FE00080B542F20000C4F20200016841F0100135
:100FF0000160032000F092F80F2000F005F800F0E7
:101000002BF8002080BD0000B0B540F20402C2F20F
:10101000000240F200011278C2F200014FF47A732C
:101020000968B3FBF2F20446B1FBF2F1084600F0A6
:101030005FFB0F2C4FF001050CD858B94FF0FF3073
:1010400021460022002500F03DF840F20800C2F2DF
:10105000000004602846B0BD82B041F21800C4F21E
:1010600002000168022241F001010160016801F003
:10107000010101910199416841F08051416040684E
:1010800000F08050009000980420C4F20100016834
:1010900062F31A61016002B070470000002848BF87
:1010A0007047C1B200F01F00012202FA00F04EF2B8
:1010B0000012CEF2000242EAD10121F003010860E1
:1010C0007047000010B54EF60C5CCEF2000CDCF858
:1010D0000030C3F3022E8EF00704042C28BF042432
:1010E000BEF103034FF0FF3E0EFA04F438BF0023B5
:1010F000A14399400EFA03F39A43114300F00F0203
:1011000000F160430901043A03F564436244002896
:1011100048BF02F10C03197010BD00004EF60C51CF
:10112000CEF200010A684FF6FF031A4060F30A226C
:1011300042F0806040F0FD70086070472DE9F04398
:1011400081B0002800F0858042F20008C4F2020855
:101150000446D8F800000D4600F0070088420CD283
:10116000D8F8000020F007002843C8F80000D8F89D
:10117000000000F00700A8426BD1206841F204098A
:101180008107C4F2020917D5410705D5D9F8001027
:1011900041F4E061C9F80010010705D5D9F8001045
:1011A00041F46051C9F80010D9F80010A26821F08C
:1011B000F0011143C9F80010C00741D1D8F8000070
:1011C00000F00700A8420CD9D8F8000020F0070072
:1011D0002843C8F80000D8F8000000F00700A84233
:1011E00037D12068410707D5D9F80010E26821F40B
:1011F000E0611143C9F80010000708D5D9F80000D4
:10120000216920F4605040EAC100C9F80000D9F813
:10121000002002F00C00082841F20020C0F27A0001
:101220004ED143F6D833C2F38341C0F60003595C74
:10123000D20339D440F60010C0F23D0048433FE0ED
:101240006068022809D0012829D159F8041C8903B3
:1012500007D4012001B0BDE8F08359F8041C8901CE
:10126000F7D5D9F8001021F003010843C9F80000B0
:10127000FFF7A2FE064641F2883700BFD9F800000A
:10128000616800F00C00B0EB810F97D0FFF794FE7F
:10129000801BB842F2D9032001B0BDE8F08359F8B1
:1012A000041C8907D5D5DCE7D9F8002043F6D633EE
:1012B000C2F34042C0F600039A5C4843B0FBF2F030
:1012C000D9F8001043F6BE32C1F30311C0F6000294
:1012D000515C40F2000220FA01F140F20800C2F233
:1012E00000000068C2F200021160FFF78DFE0020CE
:1012F00001B0BDE8F083000040F2000041F20401BB
:10130000C2F20000C4F202010068096843F6CE325E
:10131000C1F30221C0F60002515CC84070470000D2
:1013200040F2000041F20401C2F20000C4F20201E6
:101330000068096843F6CE32C1F3C221C0F600024C
:10134000515CC840704700002DE9F04182B0002890
:1013500068D00446007841F20006C007C4F20206D5
:1013600025D0706800F00C0004281BD0706800F0D5
:101370000C00082802D17068C00313D460680028EC
:1013800000F06281B0F5A02F00F07681B0F5803FCB
:1013900000F07681306820F480303060306820F4CE
:1013A000802070E13068800301D56068D0B3207878
:1013B000800718D5706810F00C0F07D0706800F027
:1013C0000C0008286DD17068C0036AD430688007AB
:1013D00002D52069012825D13068616920F0F80024
:1013E00040EAC1003060207800071FD42078400711
:1013F00032D4E56995B1706800F00C00082840F01F
:101400008D80012D0ED07068216A00F480328A42EE
:1014100008D1616A00F47010884203D1002002B044
:10142000BDE8F081012002B0BDE8F081A06900288C
:1014300060D00020C4F242200121C0F88014FFF7E0
:10144000BBFD0546706A800700F18A80FFF7B4FD96
:10145000401B0228F6D924E1F06910F0805808D129
:10146000F06940F08050F061F06900F08050009029
:10147000009847F20007C4F200073868C00527D477
:10148000386840F480703860FFF796FD054600BF6D
:101490003868C0051CD4FFF78FFD401B6428F7D9BE
:1014A000FFE02069002840F20000C4F2422000F072
:1014B000818001210160FFF77FFD054630688007CC
:1014C0003FF58AAFFFF778FD401B0228F6D9E8E028
:1014D000E068002800F08080052800F09680012850
:1014E00000F09780306A20F001003062306A20F00E
:1014F000040091E00020C4F242200021C0F88014D2
:10150000FFF75AFD054600BF706A80077FF56EAF92
:10151000FFF752FD401B0228F6D9C2E00027C4F2B3
:10152000422700203866FFF747FD022D05460BD104
:101530003068800140F1B980FFF73EFD401B022872
:101540004FF00300F4D96AE7306880017FF566AF99
:10155000FFF732FD401B02284FF00300F4D95EE78D
:1015600040F20000C2F20000006844F6D351C1F21C
:101570006201A0FB0101480A019000BF00BF019871
:10158000411E002801913FF431AF00BF0198411E78
:10159000002801913FF42AAF00BF0198411E0028A6
:1015A00001913FF423AF00BF0198411E0028019133
:1015B000E4D11BE700210160FFF7FEFC054600BFF8
:1015C000306880077FF50FAFFFF7F6FC401B02285D
:1015D0004FF00300F4D922E7306A20F001003062B6
:1015E000306A20F004003062FFF7E6FC054641F265
:1015F000883700BF306A80071DD5FFF7DDFC401B30
:10160000B8424FF00300F5D909E7306A40F0040012
:101610003062306A40F001003062FFF7CDFC0546D1
:1016200041F28837306A800705D4FFF7C5FC401BBC
:10163000B842F7D935E0B8F1000F7FF4DAAEF069BF
:1016400020F08050F061D4E6306820F480303060C3
:10165000306820F480203060FFF7AEFC054600BF04
:10166000306880037FF5A3AEFFF7A6FC401B64281B
:101670004FF00300F4D9D2E6306840F480203060A7
:10168000306840F480303060FFF796FC054600BFBC
:10169000306880033FF58BAEFFF78EFC401B64285B
:1016A000F6D9032002B0BDE8F081206AB0F5803F92
:1016B00005D17168A26821F400311143716071682D
:1016C000626A21F474111143084370600120386686
:1016D000FFF772FC044600BF306880013FF59EAE04
:1016E000FFF76AFC001B02284FF00300F4D996E6CE
:1016F000411E0020B0EB116F1CBF012070474EF25D
:101700001002CEF2000251604EF62351CEF20001DB
:10171000F0230B7007219060116070477047000044
:101720007047000010B590F83C20012A4FF00202EB
:101730003ED080F83D200268D2F804E0D2F808C01C
:101740000C682EF07003234340F6FF34C4F200040B
:10175000A24253600FDCB2F1804F1ED040F2004332
:10176000C4F200039A4218D040F60003C4F200030A
:101770009A4212D016E040F60043C4F200039A42A7
:101780000BD043F20043C4F201039A4205D042F663
:101790000043C4F201039A4204D149682CF080034B
:1017A000194391600121002280F83D1080F83C200F
:1017B000104610BD002804BF0120704710B5044634
:1017C00090F83D0028B9002084F83C00204600F045
:1017D0001FF8022084F83D002068211D01F052FD11
:1017E000012084F8460084F83E0084F83F0084F825
:1017F000400084F8410084F8420084F8430084F8F3
:10180000440084F8450084F83D00002010BD00002D
:1018100010B582B0006841F20041C4F20001884274
:1018200014D041F20001C4F20001884227D141F2F4
:101830001C00C4F202000168362441F0100101606E
:10184000006800F01000019001980DE041F21C00CA
:10185000C4F202000168372441F0200101600068F1
:1018600000F0200000900098204600210022FFF7A1
:1018700029FC204602B0BDE81040FFF70FBC02B0C3
:1018800010BD000090F83D1001291CBF01207047D9
:10189000022180F83D10006840F6FF32C168C4F2B2
:1018A0000002904241F00101C1600FDCB0F1804FB5
:1018B0001ED040F20041C4F20001884218D040F628
:1018C0000001C4F20001884212D018E040F6004145
:1018D000C4F2000188420BD043F20041C4F201017E
:1018E000884205D042F60041C4F20101884206D187
:1018F000816801F00701062904BF002070470168D4
:1019000041F001010160002070470000002804BF81
:10191000012070472DE9F047044690F83D000D4640
:1019200028B9002084F83C00204600F049F8022045
:1019300084F83D00206844F2070281689143816089
:10194000211D01F09FFC20684FF6FF7881688269B5
:10195000D0F820C0D5E9003ED5E9026A43EA010982
:10196000AB6922EA080246EA03234FF6FC46B3437A
:10197000D5E9076742EA0A0229691A4342EA0622C0
:1019800042EA01112CF022026B6942EA0E0241EA9E
:10199000073142EA0312C0F8089081610262012017
:1019A00084F8460084F83E0084F83F0084F8420042
:1019B00084F8430084F83D000020BDE8F087000073
:1019C00070B586B000680026B0F1804FCDE904669E
:1019D000039602962AD042F60041C4F201018842E1
:1019E00068D141F21800C4F20200016841F40061BC
:1019F0000160016801F4006101910199016841F001
:101A000004010160006802A900F00400019001983F
:101A10004FF4407002900020CDE9030040F6000032
:101A2000C4F20100FFF7CAF906B070BD41F2180018
:101A3000C4F20200416840F6000441F00101416037
:101A40004168C4F2010401F00101019101990168AA
:101A500002AD41F004010160016801F0040101914F
:101A60000199016841F0080101600068294600F011
:101A70000800019001984FF40040CDE9020620468D
:101A80000496FFF79BF90820CDE9020604F5806073
:101A900029460496FFF792F90420C4F20100016878
:101AA0004FF6FF42CFF6FF02114041F0E06141F4F2
:101AB0008071016006B070BD80B590F83E2090F84E
:101AC0003F3090F842E090F843C0042909D0B1B902
:101AD000012A4FF0010208BFBEF1010F32D01046BB
:101AE00080BD012B4FF0010208BFBCF1010FF6D100
:101AF000022180F83F1080F8431000681EE0012AA0
:101B00004FF0010208BF012BE9D1BEF1010FE6D170
:101B1000BCF1010FE3D1022280F83E2080F83F2083
:101B200080F8422080F8432089B10068016A21F0E2
:101B300001010162016A41F00101016210216FF0AF
:101B4000100208E0022180F83E1080F84210006880
:101B500001216FF00102036A1A400262026A114316
:101B600001620168002241F001010160104680BD60
:101B70007047000070B504460068C5680669B10783
:101B800016D515F0020113D06FF002010161012199
:101B900021778069800703D02046FFF7E9FF05E041
:101BA000204600F007F9204600F0A2FA0020207736
:101BB000700718D515F0040015D020686FF00401E7
:101BC000016102212177806910F4407F03D0204613
:101BD000FFF7CEFF05E0204600F0ECF8204600F0CD
:101BE00087FA00202077300717D515F0080014D0A9
:101BF00020686FF00801016104212177C069800726
:101C000003D02046FFF7B4FF05E0204600F0D2F8ED
:101C1000204600F06DFA00202077F00618D515F068
:101C2000100015D020686FF01001016108212177A4
:101C3000C06910F4407F03D02046FFF799FF05E00C
:101C4000204600F0B7F8204600F052FA0020207736
:101C5000F00718BF15F0010002D1300609D412E0D8
:101C600020686FF001010161204600F0B3FA3006F0
:101C700009D515F0800006D020686FF08001016161
:101C80002046FFF74BFD700609D515F0400006D041
:101C900020686FF040010161204600F091FBB00622
:101CA00058BF70BD15F0200008D021686FF02002E9
:101CB00020460A61BDE87040FFF732BD70BD0000EC
:101CC000B0B586B0006840F60041C4F20001884219
:101CD0004FF00001CDE90411CDE9021134D040F6F6
:101CE0000001C4F20001884244D040F20041C4F235
:101CF000000188425BD141F21800C4F20200016881
:101D000040F6000441F0040101600168C4F20104DE
:101D100001F00401019101990168022541F00801D7
:101D20000160006802A900F0080001900198C0203D
:101D30000290204603950595FFF740F80320CDE972
:101D4000020504F580602DE041F21800C4F20200A3
:101D5000016841F004010160006800F00400019096
:101D600001980F2002900220039040F60000C4F278
:101D7000010017E041F21800C4F20200016841F0CE
:101D800008010160006800F00800019001984FF41C
:101D9000E07002900220039040F60000C4F20100BF
:101DA00000F580600221059102A9FFF707F806B04F
:101DB000B0BD0000704700002DE9F04190F83C30C4
:101DC000012B04BF0220BDE8F0814FEAB202032AD2
:101DD00000F21B81DFE802F002468FD9036843F26C
:101DE00000461D6A1A6A25F0020522F001021A62F5
:101DF0001A465C6852F818EF8F68D1F800C0C4F238
:101E00000106B34245EA070505D042F60047C4F291
:101E10000107BB4205D1CF6825F00C0527F0040768
:101E20003D43B34205D042F60046C4F20106B34238
:101E300005D1D1E9056724F4407434433C432EF0C6
:101E4000730747EA0C075C609F614F6809695F632D
:101E50001D629F6947F008079F619F6927F004078B
:101E60009F61C8E0036843F200461D6A1A6A25F0C4
:101E7000200522F010021A621A46D3F804C052F864
:101E8000188F8F68D1F800E0C4F20106B34245EA2A
:101E9000071505D042F60047C4F20107BB4207D13F
:101EA000CF686FF0400425F0C00504EA071425430D
:101EB000B34205D042F60044C4F20104A34206D165
:101EC000D1E905462CF44067264347EA860C28F4FE
:101ED000E64444EA0E27C3F804C09F614F680969CD
:101EE0009F631D629F6947F400679F619F6927F4A4
:101EF00080679F617EE0036843F200461D6A1A6AAC
:101F000025F4007522F480721A621A46D3F804C0D0
:101F100052F81CEF8F68D1F80080C4F20106B3427A
:101F200045EA072505D042F60047C4F20107BB4247
:101F300008D1CF6840F2FF443F0225F4406527EA0C
:101F400004042543B34205D042F60044C4F2010420
:101F5000A34206D1D1E905462CF44057264347EA6F
:101F6000061C2EF0730747EA0807C3F804C0DF61B8
:101F70004F680969DF631D62DF6947F00807DF61A9
:101F8000DF6927F00407DF6135E0036843F20047AB
:101F9000D3F820C01A6AC4F2010722F480521A62F0
:101FA0001A465C6852F81C5FD1F800E08E68BB42AC
:101FB00005D042F60047C4F20107BB4204D14F6985
:101FC00024F4804444EA87142CF4005747EA063787
:101FD00025F4E64646EA0E265C60DE614E68096935
:101FE0001E641F62DF6947F40067DF61DF6927F461
:101FF0008067DF6109021368194311600021002224
:1020000080F83C200846BDE8F0810121F7E7000098
:10201000002804BF0120704710B5044690F83D0029
:1020200028B9002084F83C00204600F01FF8022068
:1020300084F83D002068211D01F024F9012084F876
:10204000460084F83E0084F83F0084F8400084F89D
:10205000410084F8420084F8430084F8440084F886
:10206000450084F83D00002010BD000083B00068EA
:1020700040F60041C4F2000188421AD040F6000147
:10208000C4F20001884223D040F20041C4F20001B2
:1020900088421BD141F21C00C4F20200016841F0E9
:1020A00002010160006800F002000290029803B093
:1020B000704741F21C00C4F20200016841F00801BF
:1020C0000160006800F008000090009803B07047BD
:1020D00041F21C00C4F20200016841F004010160F9
:1020E000006800F004000190019803B07047000000
:1020F0007047000041B1082910D0042914BF00F135
:10210000410200F13F020BE090F83E20012A1CBF83
:1021100001207047022280F83E2012E000F14002C8
:102120001278012A1CBF012070470222082906D01C
:10213000042914BF80F8412080F83F2001E080F896
:102140004020006801F01F010122036A02FA01F138
:1021500023EA01020262026A114340F6FF32C4F22E
:102160000002904201620DDCB0F1804F24D040F2B9
:102170000041C4F2000188421ED040F60001C4F2C2
:10218000000117E040F60041C4F20001884213D07C
:1021900043F20042C4F2010242F600419042C4F20E
:1021A000010101D088420ED1436C904243F40043B8
:1021B000436401D0884206D1816801F007010629F5
:1021C00004BF00207047016841F001010160002058
:1021D000704700002DE9F04381B0076840F24820C5
:1021E000C2F200000068874257D140F22810C2F2C4
:1021F0000000006847F23055416A40F220344562E1
:10220000481BC2F200046060FEF79DF940F200082E
:10221000C4F230184146FEF731F8FEF7D5F94CF616
:10222000CD4944F6CC46CCF6CC49C4F235064A46F4
:102230003346FEF7D3F80023C3F6D0730022FEF72F
:102240005BF80023C4F24E030022FEF755F800238A
:10225000C4F269030022FEF74FF8FEF796F940F248
:10226000E001C2F200010968E060486A4D62401B6B
:102270006061FEF768F94146FDF7CEFFFEF7A4F96D
:102280004A463346FEF738F80023C4F21003002212
:10229000FEF732F8FEF779F9E06140F29020C2F2E1
:1022A0000000006887426CD140F22036C2F200067E
:1022B000F068FEF748F940F240340025C2F200040D
:1022C000C4F28635014620462A4601F0B7FAF06985
:1022D000FEF739F9014604F170002A4601F0AEFA22
:1022E000F06AFEF730F9014604F1E0002A4601F0F9
:1022F000A5FAE56B002128460026FEF7FAF858B942
:1023000040F27010C2F20000076885F000407E6362
:10231000FEF727F9064616E0284600210026FEF7BC
:10232000CCF850B92846FEF71CF940F27011C2F201
:1023300000010F680026786305E040F27010C2F2D9
:10234000000007687E63BE63D4F8AC4000212046DD
:102350000025FEF7CEF830B984F00040FD63FEF7AB
:1023600000F905460CE0204600210025FEF7A5F8FF
:1023700028B92046FEF7F5F8F863002500E0FD6374
:102380003D6440F21000C2F200000089B0F5AA7F5F
:1023900008D0B0F5806F08D0B0F5D56F0CD140F201
:1023A000DC5003E04FF4FA7000E0002040F2B81176
:1023B000C2F200010968C86301B0BDE8F083000003
:1023C0007047000070470000006844F60001C4F246
:1023D0000001884218BF704740F2D82040F29A01AD
:1023E000C2F20000C2F20001012200F08DBB000029
:1023F000B0B582B0044600680168C368426901F064
:102400002F05202D03F0200506D12DB1204602B066
:10241000BDE8B04001F02AB95FEA017C1EBF02F0BE
:10242000010E03F4907212EB0E0253D1226B012ABB
:1024300005D111F0100218BF13F0100236D10A06B0
:1024400022D513F080021FD094F8411021293FD1EA
:10245000A168B1F5805F03D12169002900F06E8287
:10246000216A4A1C226209784160E18C01390A0420
:10247000E1842DD1C16821F08001C160C16841F0C3
:102480004001C16002B0B0BD490621D513F0400142
:102490001ED0C16821F04001C1602021204684F88F
:1024A000411002B0BDE8B04000F022BC0021019113
:1024B000016801914168019101994069400613D476
:1024C000A08DE18DE28D002A18BF884240F0B881CE
:1024D00002B0B0BDCA0718BF13F4807240F0B680D6
:1024E0004A0700F1B980BEE0E06B016849688AB232
:1024F000002AEDD0A38D9A42EAD2E1858069202896
:1025000000F09C80206850E8030F216820F4807060
:1025100041E80302DAB1206850E8030F216820F493
:10252000807041E8030292B1206850E8030F2168EF
:1025300020F4807041E803024AB1206850E8030F9C
:10254000216820F4807041E80302002ADAD1206873
:1025500050E8050F216820F0010041E80502DAB1DA
:10256000206850E8050F216820F0010041E80502CD
:1025700092B1206850E8050F216820F0010041E881
:1025800005024AB1206850E8050F216820F00100DB
:1025900041E80502002ADAD1206850E8050F2168D9
:1025A00020F0400041E80502DAB1206850E8050F4C
:1025B000216820F0400041E8050292B1206850E80F
:1025C000050F216820F0400041E805024AB120686B
:1025D00050E8050F216820F0400041E80502002A7C
:1025E000DAD1202084F8420000202063206850E8DF
:1025F000030F216820F0100041E80302DAB12068DF
:1026000050E8030F216820F0100041E8030292B166
:10261000206850E8030F216820F0100041E8030211
:102620004AB1206850E8030F216820F0100041E80B
:102630000302002ADAD1E06BFEF71EF90220606384
:10264000A08DE18D401A81B2204672E1626C42F0A9
:10265000010262644A0706D5BEF1000F03D0626C26
:1026600042F0020262648A0706D5BEF1000F03D071
:10267000626C42F004026264BCF1000F09D545EAC5
:102680000E02B2FA82F2520903D1626C42F00802E1
:102690006264626C002A3FF41BAF11F0200118BF86
:1026A000002D03D0204600F0E1FF20684069616CF6
:1026B00000F0400001F00801401800F0B48000BFB5
:1026C000206850E8030F216820F4907041E803026D
:1026D000BAB3206850E8030F216820F4907041E8F5
:1026E000030272B3206850E8030F216820F4907051
:1026F00041E803022AB3206850E8030F216820F460
:10270000907041E80302002ADAD11AE0206850E80C
:10271000050F216820F0010041E80502DAB12068C8
:1027200050E8050F216820F0010041E8050292B150
:10273000206850E8050F216820F0010041E80502FB
:102740004AB1206850E8050F216820F0010041E8F7
:102750000502002ADAD1206B012824D1206850E834
:10276000030F216820F0100041E80302DAB120686D
:1027700050E8030F216820F0100041E8030292B1F5
:10278000206850E8030F216820F0100041E80302A0
:102790004AB1206850E8030F216820F0100041E89A
:1027A0000302002ADAD1202084F8420000202063AE
:1027B0002068406940063DD5206850E8050F216833
:1027C00020F0400041E80502DAB1206850E8050F2A
:1027D000216820F0400041E8050292B1206850E8ED
:1027E000050F216820F0400041E805024AB1206849
:1027F00050E8050F216820F0400041E80502002A5A
:10280000DAD1E06BB0B143F26D31C0F60001416343
:10281000FEF752F800283FF45BAEE06B416B02B06C
:10282000BDE8B04008472046FFF7CEFD00206064B9
:1028300002B0B0BD204602B0BDE8B040FFF7C4BD55
:10284000401A216851E8031F226821F4907142E880
:102850000313DBB1216851E8031F226821F4907152
:1028600042E8031393B1216851E8031F226821F461
:10287000907142E803134BB1216851E8031F2268AD
:1028800021F4907142E80313002BDAD1216851E85A
:10289000051F226821F0010142E80513DBB1216820
:1028A00051E8051F226821F0010142E8051393B1A8
:1028B000216851E8051F226821F0010142E8051353
:1028C0004BB1216851E8051F226821F0010142E85F
:1028D0000513002BDAD1202184F842100021216356
:1028E000216851E8031F226821F0100142E8031318
:1028F000DBB1216851E8031F226821F0100142E892
:10290000031393B1216851E8031F226821F01001DD
:1029100042E803134BB1216851E8031F226821F0FC
:10292000100142E80313002BDAD1022281B22046C3
:10293000626302B0BDE8B040FFF744BD216A31F8E0
:10294000022B6FF35F22426021628EE5002804BFF4
:102950000120704710B5044690F8410028B90020C6
:1029600084F84000204600F061F8242084F84100FB
:102970002068D4E90212C36823F40053C3600369DA
:1029800023F440531A430261D4E904231143C2687B
:10299000194341F20C639A431143C1604169A26932
:1029A00021F44071114343F60002C4F20102904247
:1029B000416102D0FEF7A0FC01E0FEF7B1FC6268C5
:1029C000192148439100B0FBF1F048F21F51C5F2C4
:1029D000EB11A0FB01235A094FF69C73C0F6FF735D
:1029E00002FB0300322303EB0010A0FB0101F023E4
:1029F00003EA5113206803EB0212C1F3431111449F
:102A00008160016921F490410161416921F02A014D
:102A10004161C16841F40051C1600020202160641F
:102A200084F8411084F84210606310BDF0B585B0A1
:102A30000446006844F60001C4F200010027884201
:102A4000039701D005B0F0BD41F21800C4F20200B6
:102A5000416841F2000541F4802141604168C4F2BF
:102A6000010501F4802100910099016801AE41F057
:102A7000100101600068314600F0100000900098DD
:102A80004FF48060019002200290032004902846B9
:102A9000FEF794F94FF40060CDE90107284631466E
:102AA0000397FEF78BF90420C4F20100016840F29D
:102AB0009C0541F0E06141F0100121F0200101602E
:102AC0003020C2F20005C4F2020080214FF400520F
:102AD000C5E900072846C5E90271C5E90477C5E9DB
:102AE0000672FEF7B9F8002818BFFDF7BFFE2720D1
:102AF00000210022E5636C62FEF7E4FA2720FEF76E
:102B0000CDFA05B0F0BD000070B582B0044690F873
:102B10004200202809D113460A4600294FF001003F
:102B200018BF002B04D102B070BD022002B070BDEE
:102B3000002522202563A262A385656484F84200F3
:102B40002168E06B43F2F54C43F2556E43F279365F
:102B5000C0F6000CC0F6000EC0F600060431C0E955
:102B60000ACEC0E90C65FEF7C7F801952068016838
:102B70000191406801900198206928B3206850E8CD
:102B8000030F216840F4807041E80302E2B120683D
:102B900050E8030F216840F4807041E803029AB1C5
:102BA000206850E8030F216840F4807041E8030278
:102BB00052B1206850E8030F216840F4807041E86A
:102BC0000302002ADAD100BF206850E8050F21680F
:102BD00040F0010041E80502E2B1206850E8050F2D
:102BE000216840F0010041E805029AB1206850E8F0
:102BF000050F216840F0010041E8050252B120684C
:102C000050E8050F216840F0010041E80502002A64
:102C1000DAD100BF206850E8050F216840F040007D
:102C200041E80502DAB1206850E8050F216840F05C
:102C3000400041E8050292B1206850E8050F216884
:102C400040F0400041E805024AB1206850E8050F15
:102C5000216840F0400041E80502002ADAD1002056
:102C600002B070BDB0B5006844F60001C4F20001C6
:102C7000884200D0B0BD40F29A0040F29805C2F2FE
:102C80000000C2F200050078298840F23404C2F244
:102C900000046054207811B90F2818BFB0BD01316D
:102CA0008AB2642A88BF00210F28298010D1207E93
:102CB00070B988B219280BD1204600F0EDFE002033
:102CC000C4E90000C4E90200C4E9040020762880B9
:102CD00040F2D82040F29A01C2F20000C2F2000194
:102CE0000122BDE8B040FFF70FBF000070470000B1
:102CF00070470000FEE7000080B582B041F214008A
:102D0000C4F202000168002241F001010160006884
:102D1000002100F00100019001980D20FEF7D2F98A
:102D20000D2002B0BDE88040FEF7B8B92DE9F047AC
:102D300084B041F21800C4F20200016840F6004A73
:102D400041F0100101600168C4F2010A01F01001B4
:102D50000091009901680AF5806541F02001016049
:102D60000168002201F020010091009901684FF4F0
:102D7000005641F00401016001684FF0000901F0C4
:102D8000040100910099016841F0080101600068A8
:102D90004FF4005100F00800009000982846FEF71C
:102DA00005F950464FF4007100224FF40078FEF709
:102DB000FDF800966E460127022428463146CDE9EB
:102DC00001790394FDF7FAFF50463146CDE90087BB
:102DD000CDE90294FDF7F2FF04B0BDE8F0870000F2
:102DE00010B58CB040F2E00042F600410024C2F27F
:102DF0000000C4F20101C0E900140321CDE903146D
:102E000001214FF6FF72CDE90514CDE9091403A99C
:102E1000CDE90044C0E90242C0E904448461CDE93F
:102E200007440B94FEF772FD002818BFFDF71EFD46
:102E300040F2E000C2F200006946CDE90044FEF72E
:102E400071FC002818BFFDF711FD0CB010BD00008B
:102E500080B58CB040F228100021C2F200004FF083
:102E60008042C0E9002103224FF6FF73CDE9032120
:102E70000122CDE90011C0E9021301618161CDE9B0
:102E80000521CDE90711CDE909210B9103A9FEF731
:102E90003DFD002818BFFDF7E9FC40F22810C2F202
:102EA00000006946FEF73EFC002818BFFDF7DEFC77
:102EB0000CB080BD80B58AB040F2701040F2004284
:102EC0000021C2F20000C4F2000247234FF0630C5D
:102ED000CDE90811CDE90611CDE90411C0E90023BF
:102EE000C0E9021C01618161FFF792F8002818BF58
:102EF000FDF7BCFC40F27010C2F2000008A9FEF71A
:102F000011FC002818BFFDF7B1FC602001900020E3
:102F1000CDE90200059040F27010C2F2000001A954
:102F20000022FEF749FF002818BFFDF79FFC40F282
:102F30007010C2F2000001A90422FEF73DFF002834
:102F400018BFFDF793FC40F27010C2F2000001A917
:102F50000822FEF731FF002818BFFDF787FC40F27A
:102F60007010C2F2000001A90C22FEF725FF002814
:102F700018BFFDF77BFC40F27010C2F20000FEF7B4
:102F80009FFE0AB080BD000080B58AB040F2B81044
:102F900040F600020021C2F20000C4F2000240F23A
:102FA000CF2340F2CF7CCDE90811CDE90611CDE960
:102FB0000411C0E90023C0E9021C01618161FFF72F
:102FC00027F8002818BFFDF751FC40F2B810C2F2F4
:102FD000000008A9FEF7A6FB002818BFFDF746FC75
:102FE000602001900020CDE90200059040F2B81069
:102FF000C2F2000001A90022FEF7DEFE002818BF81
:10300000FDF734FC40F2B810C2F2000001A904221E
:10301000FEF7D2FE002818BFFDF728FC40F2B810DA
:10302000C2F2000001A90822FEF7C6FE002818BF60
:10303000FDF71CFC40F2B810C2F20000FEF740FEA3
:103040000AB080BD80B58AB040F2002040F6004250
:103050000021C2F20000C4F2000240F2CF2340F28D
:10306000CF7CCDE90811CDE90611CDE90411C0E905
:103070000023C0E9021C01618161FEF7C9FF00283D
:1030800018BFFDF7F3FB40F20020C2F2000008A9D0
:10309000FEF748FB002818BFFDF7E8FB6020019011
:1030A0000020CDE90200059040F20020C2F20000AD
:1030B00001A90022FEF780FE002818BFFDF7D6FB0D
:1030C00040F20020C2F2000001A90422FEF774FEC3
:1030D000002818BFFDF7CAFB40F20020C2F2000032
:1030E00001A90822FEF768FE002818BFFDF7BEFB05
:1030F00040F20020C2F2000001A90C22FEF75CFEA3
:10310000002818BFFDF7B2FB40F20020C2F2000019
:10311000FEF7D6FD0AB080BD80B582B040F24820EF
:1031200041F200020021C2F20000C4F2000241F6A6
:103130001F434FF0310CCDE90011C0E90023C0E975
:10314000021C8161FEF736FB002818BFFDF78EFBDD
:1031500040F24820C2F200006946FEF7E3FA002878
:1031600018BFFDF783FB02B080BD000080B582B0C0
:1031700040F2902041F200420021C2F20000C4F26D
:10318000000241F61F434FF0C70CCDE90011C0E922
:103190000023C0E9021C8161FEF70CFB002818BF68
:1031A000FDF764FB40F29020C2F200006946FEF792
:1031B000B9FA002818BFFDF759FB02B080BD000026
:1031C00010B540F2D82044F6000C48F2A062C2F2DA
:1031D0000000C4F2000CC0F201024FF48053002141
:1031E0004FF4806E0C24C0E900C2C0E90231C0E98E
:1031F00004E4C0E90611FFF7A9FB002808BF10BDD1
:10320000BDE81040FDF732BBFEE70000FEE700001E
:1032100010B540F2403043F6792C43F6952E46F235
:103220006662C2F20000C0F6000CC0F6000EC823B1
:103230000321C4F226020024C0E916130366C0E984
:1032400000248460C0E936CEC0E93213C0F8D03023
:10325000C0E91ACEC0E91C24846710BD7047000085
:1032600070470000FDF7AEBE7047000040F24820F6
:10327000C2F20000FEF77EBC40F29020C2F20000D5
:10328000FEF778BC10B540F6FF3E0368C4F2000EAE
:1032900043F2004C7045C4F2010C20DCB0F1804FC9
:1032A0002BD040F20042C4F20002904225D040F6FA
:1032B0000002C4F2000290421FD0704523DCB0F13E
:1032C000804F2ED040F20042C4F20002904228D03B
:1032D00040F60002C4F20002904222D025E040F6FF
:1032E0000042C4F20002904207D0604505D042F689
:1032F0000042C4F201029042DFD14A6823F0700319
:1033000013437045DBDD40F60042C4F200029042F8
:1033100007D0604505D042F60042C4F20102904257
:1033200003D1CA6823F44073134323F080024B692E
:10333000D1F800E08C681A4360450260C462C0F8AE
:1033400028E005D042F60042C4F20102904201D1C9
:1033500009690163012141610169C90708BF10BD05
:10336000016921F00101016110BD0000406A0021E6
:10337000C185C184FFF728B8406A01684A6990F89E
:103380004130212B2DD112F080022AD00021C1849E
:10339000016851E8031F026821F0C00142E80313ED
:1033A000DBB1016851E8031F026821F0C00142E867
:1033B000031393B1016851E8031F026821F0C001B3
:1033C00042E803134BB1016851E8031F026821F082
:1033D000C00142E80313002BDAD1202180F841100C
:1033E0000168496990F84220222A40F07D8011F05E
:1033F000400179D00021C185016851E8031F0268AE
:1034000021F4907142E80313BBB3016851E8031F34
:10341000026821F4907142E8031373B3016851E824
:10342000031F026821F4907142E803132BB3016873
:1034300051E8031F026821F4907142E80313002B46
:10344000DAD11AE0016851E8051F026821F0010194
:1034500042E80513DBB1016851E8051F026821F05D
:10346000010142E8051393B1016851E8051F0268A4
:1034700021F0010142E805134BB1016851E8051F35
:10348000026821F0010142E80513002BDAD1016B3B
:10349000012924D1016851E8031F026821F01001BD
:1034A00042E80313DBB1016851E8031F026821F011
:1034B000100142E8031393B1016851E8031F026849
:1034C00021F0100142E803134BB1016851E8031FDA
:1034D000026821F0100142E80313002BDAD1202109
:1034E00080F8421000210163416C41F010014164F9
:1034F000FEF76ABF0168406A0968890600F19F808B
:103500000021C185016851E8031F026821F4807120
:1035100042E80313E3B1016851E8031F026821F494
:10352000807142E803139BB1016851E8031F0268F0
:1035300021F4807142E8031353B1016851E8031F7D
:10354000026821F4807142E80313002BDAD100BF36
:10355000016851E8051F026821F0010142E80513E6
:10356000BBB3016851E8051F026821F0010142E880
:10357000051373B3016851E8051F026821F00101CA
:1035800042E805132BB3016851E8051F026821F0DA
:10359000010142E80513002BDAD11AE0016851E875
:1035A000051F026821F0400142E80513DBB1016804
:1035B00051E8051F026821F0400142E8051393B16C
:1035C000016851E8051F026821F0400142E8051337
:1035D0004BB1016851E8051F026821F0400142E843
:1035E0000513002BDAD1202180F84210016B01294C
:1035F00025D100BF016851E8031F026821F01001C6
:1036000042E80313DBB1016851E8031F026821F0AF
:10361000100142E8031393B1016851E8031F0268E7
:1036200021F0100142E803134BB1016851E8031F78
:10363000026821F0100142E80313002BDAD10021C7
:103640004163016B012918BFFFF70CBB818DFEF7A9
:10365000B9BE0000406A01214163016B012918BF16
:10366000FFF744BB818D4908FEF7ACBE81B090F8EE
:103670004210222920D183680246B3F5805F08D129
:1036800052F8281F52F8183C002B61D003685B6881
:1036900009E052F8281F13B90369002BF6D003681C
:1036A0005B6803F07F030B70116801311160C18DFD
:1036B00001390A04C18501D001B070470168CA68A8
:1036C00022F02002CA60CA6822F48072CA604A6985
:1036D00022F001024A61202180F84210002141635A
:1036E000026B012A3CD10163016851E8031F0268A3
:1036F00021F0100142E80313DBB1016851E8031F18
:10370000026821F0100142E8031393B1016851E807
:10371000031F026821F0100142E803134BB1016856
:1037200051E8031F026821F0100142E80313002B47
:10373000DAD101680A68D20606D5002200920A682A
:103740000092496800910099818D01B0FEF73ABE60
:10375000026852686FF35F2221F8022B8162A6E7AC
:1037600001B0FFF77FBA000040F2D820C2F200009B
:10377000FEF73EBEFEE7000090B0FDF731FC0024EE
:103780000120CDE90B44CDE9094406900A904FF49D
:10379000E0104FF4803102250F9006A8CDE9071400
:1037A000CDE90D51FDF7D0FD18B1EFF3108072B6E1
:1037B000FEE70F20CDE901054FF48060CDE9040458
:1037C00001A802210394FDF7B9FC20B1EFF31080AA
:1037D00072B600BFFEE7FFF7A9FAFFF78DFAFFF711
:1037E000FFFAFFF735FBFFF7EBFCFFF763FBFFF793
:1037F00093FCFFF7C9FBFFF725FCFFF7B7FC4FF47D
:10380000FA70FDF7C7FAFCF7C3FF40F2D82040F288
:103810009A01C2F20000C2F200010122FFF774F91E
:10382000FFF7F6FC41F20000C4F201004FF4005132
:103830000122FDF7BBFB00BFFEE700002DE9F04FC2
:1038400083B0044601624261104691468846FCF707
:10385000DDFC276D8246E062384600210025FCF73A
:1038600064FE2AF0004630B930463946FCF74FFE78
:10387000002840F0FC80676D002138460025FCF7E9
:1038800054FE30B930463946FCF725FE002840F09A
:10389000EE80A26D032A75D0042A40F0DA80A56A72
:1038A000504629460292FCF7B1FC014694E8810893
:1038B000666AFCF7B1FC0090206350463946FCF77D
:1038C000ABFC07466063284629460195FCF74CFC93
:1038D00001465046FCF79AFC3146FCF745FC014690
:1038E0005846FCF799FC8346206EC4F838B0FCF7C4
:1038F00033FE064638463146FCF709FE3D460028B1
:1039000018BF354686F0004604D128463146FCF7FC
:10391000F0FD40B928463146FCF7DDFD002818BF10
:1039200035462F46656300983946FCF71DFC014675
:103930005846FCF719FC01466064E06CE56DFCF745
:1039400013FC0746A0642846FCF706FE06463846E8
:103950003146FCF7DCFD3D46002818BF354686F0B1
:10396000004604D128463146FCF7C3FD40B928463D
:103970003146FCF7B0FD002818BF35462F46A56438
:10398000E76463E094E82208A66A50460292FCF7D6
:1039900043FC676B0090206328465146FCF73CFCD3
:1039A0003946FCF7E1FB0546606350463146019617
:1039B000FCF72CFC01465846FCF72EFC0746206E0F
:1039C000A763FCF7C9FD064628463146FCF79FFD74
:1039D000AB46002818BFB34686F0004604D15846CF
:1039E0003146FCF786FD48B958463146FCF773FD71
:1039F000002818BFB3465D46C4F834B00098294685
:103A0000FCF7B2FB01463846FCF7AEFB0746E06D1B
:103A1000E763FCF7A1FD064638463146FCF777FD23
:103A20003D46002818BF354686F0004604D128469A
:103A30003146FCF75EFD40B928463146FCF74BFDA8
:103A4000002818BF35462F46E5632764DDE90102EB
:103A500000E0A06AC4E9090AE0692169C4E906082E
:103A60004820C4E90319032A08BF3C2025582846EA
:103A700003B0BDE8F08F000010B5DDF810C0DDE93F
:103A8000024E8165C2650366C0E9004EC0F808C0F9
:103A900010BD00000EC0704710B50146C07D38B1A2
:103AA00040F21001C2F20001002081F8200010BD98
:103AB00040F21002C2F20002012082F8200091F8C8
:103AC00001C08B7891F803E063F30A2CDB086EF3F6
:103AD0004A130C79538091F803E0A4004B7944EA2F
:103AE0009E1463F38A2494804B798C795B0864F389
:103AF000CA13D3808B79CC791B0964F30A13138121
:103B00000C7ACB7991F809E0640044EAD3136EF3A0
:103B10004A2353814B7A8C7A9B0864F38A139381EE
:103B2000CB7A8C7ADB0043EA5413D3810B7B4C7B3A
:103B3000A2F800C064F30A2313824B7B8C7BDB0862
:103B400064F34A135382CC7B8B7B91F810C0A400A2
:103B500044EA93136CF38A2393820B7C4C7C5B08BE
:103B600064F3CA13D3824B7C8C7C1B0964F30A1365
:103B70001383CC7C8B7C91F814C0640044EAD3138B
:103B80006CF34A2353830B7D4C7D9B0864F38A13AB
:103B900093838B7D497DDB0043EA5111D18310BDB6
:103BA00002E008C8121F08C1002AFAD17047704706
:103BB000002001E001C1121F002AFBD17047000064
:103BC00000000000000001020304060708090000CD
:103BD00000000102030401020203040506070809AC
:103BE0000A0B0C0D0E0F1010083C000800000020FE
:103BF00010000000A03B0008183C00081000002046
:103C000018080000B03B000800127A000100000014
:083C100010000000000000009C
:0400000508000131BD
:00000001FF
